:100000005BC15AC674C173C191C171C170C16FC166
:100010006EC16DC16CC16BC16AC169C168C167C184
:1000200066C1CEC7D3C7D6C7DDC7E0C7F1C7F0C723
:10003000EFC7EEC7E3C7DEC7000000000000000006
:100040000101010101020202030303040405050684
:1000500007070808090A0B0B0C0D0E0F10111213DD
:1000600014151618191A1B1D1E1F212224252728B6
:100070002A2C2D2F31333537383A3C3E4143454702
:10008000494B4E505255575A5C5F616467696C6FBB
:100090007275787A7D8084878A8D9093979A9DA1D6
:1000A000A4A8ABAFB3B6BABEC1C5C9CDD1D5D9DD51
:1000B000E1E5E9EEF2F6FBFF0508094BA1011500A9
:1000C00026FF007508A102093D850195029100C037
:1000D000A102093D850295019100C0A10209478551
:1000E0000395039100C0A102093E8504950191008A
:1000F000C0A102094785059501B100C0A102093DD3
:1001000085069501B100C0A102094785079503B195
:1001100000C0A102094785089501B100C0A10209EC
:100120004785099501B100C0A1020947850A9504D8
:100130009100C0A1020947850B9501B100C0A10241
:100140000947850C9501B100C0C000A495887D7455
:100150006C655F5A55514D494643403E3C393736F0
:100160003432312F2E2C2B2A2928272625242323ED
:10017000222120201F1F1E1D1D1C1C1B1B1A1A1AAA
:100180001919181818171717161616151515141407
:10019000141413131313121212121211111111113C
:1001A0001010101010100F0F0F0F0F0F0F0E0E0E5C
:1001B0000E0E0E0E0E0D0D0D0D0D0D0D0D0D0C0C6C
:1001C0000C0C0C0C0C0C0C0C0B0B0B0B0B0B0B0B77
:1001D0000B0B0B0B0A0A0A0A0A0A0A0A0A0A0A0A7B
:1001E0000A0A0A090909090909090909090909097C
:1001F000090909090908080808080808080808087A
:100200000808080808080808080808070707070773
:10021000070707070707070707070707070707076E
:100220000707070707070707060606060606060666
:10023000060606060606060606060606060606065E
:100240000606060606060606060609022200010143
:1002500000803209040000010300000009210101AF
:1002600000012292000705810308000A1201100113
:1002700000000008D016310800010102030112033A
:100280004400650073006B004C0061006D0070005D
:1002900024037700770077002E0064006D0078005B
:1002A00063006F006E00740072006F006C002E001F
:1002B000640065000403090411241FBECFE5D2E0E9
:1002C000DEBFCDBF10E0A0E6B0E0E2E1F1E102C0A8
:1002D00005900D92A636B107D9F720E0A6E6B0E06A
:1002E00001C01D92A23FB207E1F720D610C788CE09
:1002F0001092BA001092BB00F89414BE81B58861C8
:1003000081BD80E481BD81E08EBD789408958091A7
:10031000BB008823E1F31092BB006091B60070919E
:10032000B7008091B8009091B90008951F920F9284
:100330000FB60F9211242F934F935F936F937F9378
:100340008F939F93AF93BF93EF93FF938091BA00E6
:100350009CB5E82FF0E0EA59FF4F90838F5F8093C0
:10036000BA00803208F4D0C0E6E6F0E02191809136
:10037000B6009091B700A091B800B091B900820F7B
:10038000911DA11DB11D8093B6009093B700A0935D
:10039000B800B093B9008091B6009091B700A091D9
:1003A000B800B091B9004091B6005091B70060918B
:1003B000B8007091B9002AE0880F991FAA1FBB1FCF
:1003C0002A95D1F7840F951FA61FB71F8093B600FB
:1003D0009093B700A093B800B093B9008091B60095
:1003E0009091B700A091B800B091B9004091B600CB
:1003F0005091B7006091B8007091B90026E0B695B1
:10040000A795979587952A95D1F784279527A627AD
:10041000B7278093B6009093B700A093B800B0932D
:10042000B90080E0E638F80709F0A0CF8091B60067
:100430009091B700A091B800B091B9004091B6007A
:100440005091B7006091B8007091B90023E0880F17
:10045000991FAA1FBB1F2A95D1F7840F951FA61FAE
:10046000B71F8093B6009093B700A093B800B093E5
:10047000B9008091B6009091B700A091B800B091FA
:10048000B9004091B6005091B7006091B8007091EA
:10049000B900EBE0B695A79597958795EA95D1F7C2
:1004A00084279527A627B7278093B6009093B70097
:1004B000A093B800B093B9008091B6009091B700B6
:1004C000A091B800B091B9004091B6005091B7002A
:1004D0006091B8007091B900FFE0880F991FAA1FC2
:1004E000BB1FFA95D1F7840F951FA61FB71F8093E6
:1004F000B6009093B700A093B800B093B9001092E3
:10050000BA0081E08093BB00FF91EF91BF91AF9162
:100510009F918F917F916F915F914F912F910F904C
:100520000FBE0F901F901895823061F0833089F0D4
:100530008130B1F480B7613011F4806201C08F7DE9
:1005400080BF08958FB5613011F4806808C08F773F
:1005500006C08FB5613011F4806201C08F7D8FBD00
:1005600008958150833030F4E82FF0E0EE59FF4FCA
:10057000308101C031E0662359F0613099F42BB32A
:1005800081E090E001C0880F3A95EAF7822B09C01C
:100590002BB381E090E001C0880F3A95EAF780958F
:1005A00082238BBB0895882329F0813029F480931E
:1005B000870002C0109287006091870084E090E07D
:1005C00098C561E0811101C060E06093930085E00F
:1005D00090E08FC560938F0070939000809391009E
:1005E0009093920044E050E060E070E08FE890E08B
:1005F00077C51092860010928C0010928D0081E0D9
:1006000080938E008FEF8093880080938900809381
:100610008A0080938B0084E090E05AD58093870015
:100620008F3F11F480E0BFDF85E090E051D58093EB
:1006300093008F3F11F481E0C4DF44E050E060E0BC
:1006400070E08FE890E034D580918F009091900019
:10065000A0919100B09192008F3F9F4FAF4FBF4F3D
:1006600019F446DE54DEB6DFD398D298D79AD69ADC
:10067000D59A61E081E075DF80918700811106C025
:1006800061E082E06EDF61E083E06BCF08958093EC
:100690008C00089580938D000895809386000895BE
:1006A00080918C0008958091860008958091870044
:1006B000089580919300089560918F00709190004B
:1006C0008091910090919200089580918B000895FF
:1006D000873651F0823729F0823649F480918A00BA
:1006E000089580918800089580918900089580E0A0
:1006F0000895CF93DF93C0918B0080918D0081117D
:1007000002C0D0E002C0C0E0D0E08091870081113B
:1007100034C08091880090E0BE01B2D4E92FE69504
:10072000F0E0E85CFF4FE491E11106C060E081E099
:1007300018DF80B78F7D03C0ECBF80B7806280BFB9
:100740008091890090E0BE019BD4E92FE695F0E00E
:10075000E85CFF4FE491F0E0FBBDEABD80918A00C8
:1007600090E0BE018DD4E92FE695F0E0E85CFF4F04
:10077000E491F0E0F9BDE8BD12C0FE01F595E79502
:10078000E85CFF4FE491E11106C060E081E0E9DE42
:1007900080B78F7D03C0ECBF80B7806280BFDF91E0
:1007A000CF91089580B7836080BF8FB589608FBD7A
:1007B0008FEF90E095BD84BD83B7846083BF909137
:1007C0008700911103C08EB584608EBD80B78062B2
:1007D00080BF911106C08FB580688FBD8FB58062D4
:1007E0008FBD87CF823039F0833041F0813041F4C2
:1007F0006093880005C06093890002C060938A00FE
:1008000078CFE6E8F0E082836383448372CF8093FD
:100810008B006FCFCB9905C099B3892F847092FF5D
:1008200004C081E080938E00089510928E00089598
:100830002091AA00322F621708F4362F231B209331
:10084000AA002091AB00DC0180E0E22FE80F8317C3
:1008500039F09D91F0E0E455FF4F90838F5FF5CF25
:10086000E093AB0082E019DF81E09091AA00911142
:1008700080E00895FC0186EA90E09093D700809391
:10088000D60080818076803209F044C08181813039
:1008900069F582818093A6008830D9F090F4863083
:1008A000B1F08730B9F582E713DF8093A70087E6C0
:1008B0000FDF8093A80082E60BDF8093A90084E01D
:1008C0000895893041F08C3029F5F3DE08C0FDDE53
:1008D00006C0ECDE04C0EDDE882321F09BDF8093B0
:1008E000A70002C01092A70082E00895893091F419
:1008F0008281813078F0863018F08A50823050F44E
:100900001092AB008681893008F088E08093AA00BD
:100910008FEF089580E008950895CF92DF92EF92CF
:10092000FF92CF93DF931092D7001092D600DC0194
:1009300013962C9113972330F1F512968C918330F6
:10094000D1F584E990E09093D7008093D60082E1BE
:1009500093E09093950080939400AEDEE6E9F0E09A
:1009600021E030E0C0E2D0E0A901440F551F440F60
:10097000551FDE01A41BB50B6B017C0104C0F6946E
:10098000E794D794C794AA95D2F74C2D4F70A42F13
:10099000B0E04A3020F4AD01405D5F4F03C0AD01CF
:1009A000495C5F4F419351932F5F3F4F2930310591
:1009B000D9F682E101C080E0DF91CF91FF90EF9006
:1009C000DF90CF900895CF93C62F2091C70024FFCA
:1009D00007C03091C80028E823272093C80003C02F
:1009E0002AE52093C7002C2FFC01A9ECB0E08191EF
:1009F0008D9321501216DCF36C2F89EC90E058D1C6
:100A0000CC5FC093C700CF910895CF93DF936091DF
:100A1000D800635067FDC9C08091D500CCE0D0E01C
:100A2000C81BD109C452DF4F8091D4008D3209F028
:100A3000ABC0683009F0B7C083EC8093BC008AE596
:100A4000809361001092B5008881807619F0CE0104
:100A500011DF87C09A811092C5008981811106C07B
:100A60001092C60025EC30E082E076C0853019F4A3
:100A70009093D9006EC0863009F055C08B818130CB
:100A800019F48CE692E027C0823049F48AE492E0BF
:100A90009093D7008093D60090E482E241C08330E7
:100AA00039F5911109C084EB92E09093D7008093BF
:100AB000D60090E484E034C0913049F480E992E0BB
:100AC0009093D7008093D60090E484E229C09230BE
:100AD00049F48EE792E09093D7008093D60090E49B
:100AE00082E11EC09330D1F4CE0117DF90E018C030
:100AF000813249F48CE592E09093D7008093D60040
:100B000090E489E00DC0823249F488EB90E0909344
:100B1000D7008093D60090E482E902C090E480E0A0
:100B20009093B5001EC0883069F0893019F4909315
:100B3000DB000FC08A3049F08B3059F48BE480938E
:100B4000C80007C02BED30E002C025EC30E081E0AA
:100B500003C025EC30E080E03093D7002093D6002E
:100B600009C08F3F39F4988197FD8E8190E890936A
:100B7000B50007C09F81911104C09E81981708F4A9
:100B8000892F809360000FC08091B50087FF0BC054
:100B9000CE014EDE8F3F21F48EE18093610003C0D1
:100BA0008111109260001092D8008091610084FF42
:100BB00045C0809160008F3F09F440C0C82F893044
:100BC00008F0C8E08C1B809360009091BC0088E81E
:100BD00089278093BC00CC2329F18091D600909185
:100BE000D7002091B50026FF0AC0ADEBB0E0FC01B4
:100BF0002C2F34913D9331962150D9F708C0DC0158
:100C0000EDEBF0E02C2F3D9131932150E1F72FEFE8
:100C10002C0F30E02F5F3F4F820F931F9093D70030
:100C20008093D6006C2F8DEB90E042D0CC5FCC301F
:100C300019F08FEF80936000C093610084E199B355
:100C4000937031F48150D9F71092D9001092D300EB
:100C5000C1E08111C0E09091B400C91721F0811169
:100C60005BDEC093B400DF91CF91089585B78360B8
:100C700085BF8BB780648BBFE7ECF0E08BE48183AA
:100C80008AE580830895A82FB92F80E090E041E0A5
:100C900050EA609530E009C02D918227979587959D
:100CA00010F084279527305EC8F36F5FA8F308958E
:100CB000EADF8D939D930895CF93CFB7CF93C395DC
:100CC000C89BE9F7C89B09C0C89B07C0C89B05C063
:100CD000C89B03C0C89B01C0A3C0DF93C091D500CF
:100CE000DD27C452DF4FC89B02C0DF91EBCF2F93AB
:100CF0000F931F9309B32FEF00FB20F94F933F93FE
:100D000019B34FEF012700FB21F93BE031C04E7FC3
:100D1000012F19B3216028C0102F4D7F22600000E1
:100D200009B329C04B7F2460012F000019B32BC0E9
:100D300019B3477F28602AC04F7E09B320612CC0B9
:100D40004F7D19B320622FC04F7B09B3206432C09E
:100D5000422709B349934FEF0000102710FB20F9F9
:100D600019B31370C9F1297F91F2012700FB21F912
:100D700009B3237F89F2315058F1102710FB22F973
:100D800019B3277E79F2012700FB23F92F7C81F22A
:100D900009B3102710FB24F92F7971F200C019B3A1
:100DA000012700FB25F92F7359F200C009B3102762
:100DB00010FB26F9223040F200C019B3012700FBD6
:100DC00027F9243028F64F77206819B30000F9CFAF
:100DD00010E41ABF002719C03B503195C31BD04007
:100DE00010E41ABF0881033CF9F00B34E9F02091BC
:100DF000D3001981110F1213EDCF4A81441F093618
:100E000041F10D3211F0013E29F70093DA003F91D4
:100E10004F911F910F912F91DF91CAB7C6FD4FCF10
:100E2000CF91CFBFCF9118952091DA00222379F38B
:100E30001091D800112369F534306AF13093D8004D
:100E40002093D4001091D5003BE0311B3093D500A6
:100E500022C00091D8000130E4F40AE54F7049F453
:100E60003091610034FD19C000936100CCEBD0E0FB
:100E700018C03091C70034FD10C00093C700C8EC03
:100E8000D0E00FC02795A8F45150A9F4220F00001C
:100E9000F9CF4AE503C042ED01C0432FC4E1D0E0E1
:100EA00032E01AB31360D89A1ABB0BB320E413E0F4
:100EB0005F93012756E00BBB279520F4515021F496
:100EC000220FF9CF012756E000003B5A0BBBD0F2AE
:100ED000279528F4515029F4220F0000F9CF01275B
:100EE00056E027950BBB20F4515021F4220FF9CF87
:100EF000012756E0299133230BBB21F60C7F10917B
:100F0000D900110FC651D0400BBB11F01093D30084
:100F100010E41ABF01601AB31C7F402F4C7F5F9111
:100F200000C000C00BBB1ABB4BBB71CF62DBC1DB87
:100F3000811101C037DC9EE088E10FB6F894A895D6
:100F400081BD0FBE91BDD09A8AEFA895EFE6F7E17B
:100F50003197F1F700C000008150B9F7D09886DED4
:100F6000789400E010E0E12CF12CDD24D394A895D6
:100F70004CDD9FDB882399F04DDCC82FD81669F033
:100F8000882341F061E081E0ECDA60E081E0CCDAD6
:100F9000DC2EEDCF07DCD12C02C0D110E8CF83DBF3
:100FA0008230C1F581E079DBE091AC008E2F90E0DA
:100FB000FC013197EB30F10558F5EF5EFF4F0994D6
:100FC0006091AE008091AD000DDC22C08091AD003B
:100FD0001EDC1EC04091AF006091AE008091AD005C
:100FE00010DC16C08091AD0052DB12C08091AD00C4
:100FF000DADA0EC08091AD00E4DA0AC06091AD008B
:101000007091AE008091AF009091B0004AD0E2DACA
:1010100080E043DB08B600FEAACF42DBE82FF0E019
:10102000309749F4E114F10439F180E033DB61DBFE
:10103000E12CF12C21C0E65BFE4FE491CE2FD0E0F5
:101040002197EF2829F481E025DB53DB00E010E055
:101050000C171D0721F480E01DDB4BDB0AC0CE011D
:1010600001960817190728F081E014DB42DB00E045
:1010700010E00F5F1F4F7E0188B7816088BF77CF78
:101080000024552704C0080E591F880F991F009788
:1010900029F076956795B8F37105B9F7802D952FEE
:1010A000089569279627692778278727782708953D
:1010B000DC01CB01FC01E199FECF06C0FFBBEEBB1A
:1010C000E09A31960DB20D9241505040B8F7089514
:1010D000E199FECF9FBB8EBBE09A99278DB308950F
:1010E000DC01CB0102C02D9105D041505040D8F712
:1010F0000895262FE199FECF1CBA9FBB8EBB2DBB56
:101100000FB6F894E29AE19A0FBE01960895F8940A
:02111000FFCF0F
:06111200FF5A070605006C
:00000001FF
