:100000004DC181C166C165C18AC563C162C161C19B
:1000100060C15FC15EC15DC15CC15BC15AC159C1F4
:1000200058C109021B0001010080320904000000D0
:1000300003000000092101010001229200120110B9
:100040000100000008D0163108000101020301126E
:10005000034400650073006B004C0061006D00708C
:100060000024037700770077002E0064006D00788D
:100070000063006F006E00740072006F006C002E51
:100080000064006500040309040000000000000093
:10009000000101010101020202030303040405053A
:1000A0000607070808090A0B0B0C0D0E0F1011129A
:1000B0001314151618191A1B1D1E1F21222425277B
:1000C000282A2C2D2F31333537383A3C3E414345D1
:1000D00047494B4E505255575A5C5F616467696C93
:1000E0006F7275787A7D8084878A8D9093979A9DB8
:1000F000A1A4A8ABAFB3B6BABEC1C5C9CDD1D5D93D
:10010000DDE1E5E9EEF2F6FBFF0508094BA101157B
:100110000026FF007508A102093D850195029100A6
:10012000C0A102093D850295019100C0A1020947C5
:10013000850395039100C0A102093E8504950191B4
:1001400000C0A102094785059501B100C0A10209BF
:100150003D85069501B100C0A102094785079503B9
:10016000B100C0A102094785089501B100C0A102F4
:10017000094785099501B100C0A1020947850A9583
:10018000049100C0A1020947850B9501B100C0A1EF
:10019000020947850C9501B100C0C000A495887D77
:1001A000746C655F5A55514D494643403E3C393762
:1001B000363432312F2E2C2B2A292827262524238A
:1001C00023222120201F1F1E1D1D1C1C1B1B1A1A51
:1001D0001A191918181817171716161615151514B1
:1001E00014141413131313121212121211111111E9
:1001F000111010101010100F0F0F0F0F0F0F0E0E09
:100200000E0E0E0E0E0E0D0D0D0D0D0D0D0D0D0C19
:100210000C0C0C0C0C0C0C0C0C0B0B0B0B0B0B0B25
:100220000B0B0B0B0B0A0A0A0A0A0A0A0A0A0A0A29
:100230000A0A0A0A0909090909090909090909092A
:100240000909090909090808080808080808080828
:100250000808080808080808080808080707070722
:10026000070707070707070707070707070707071E
:100270000707070707070707070606060606060615
:10028000060606060606060606060606060606060E
:1002900006060606060606060606060011241FBE0A
:1002A000CFE5D2E0DEBFCDBF10E0A0E6B0E0EEEAE1
:1002B000F0E102C005900D92A636B107D9F720E013
:1002C000A6E6B0E001C01D92A63EB207E1F7F1D567
:1002D000ECC696CEA82FB92F80E090E041E050EA1E
:1002E000609530E009C02D9182279795879510F091
:1002F00084279527305EC8F36F5FA8F30895EADF7F
:100300008D939D930895CF93CFB7CF93C395C89BFB
:10031000E9F7C89B09C0C89B07C0C89B05C0C89B1C
:1003200003C0C89B01C0A1C0DF93C091C300DD27FB
:10033000C653DF4FC89B02C0DF91EBCF2F930F93C3
:100340001F9309B32FEF00FB20F94F933F9319B38D
:100350004FEF012700FB21F93BE031C04E7F012F19
:1003600019B3216028C0102F4D7F2260000009B30F
:1003700029C04B7F2460012F000019B32BC019B393
:10038000477F28602AC04F7E09B320612CC04F7D73
:1003900019B320622FC04F7B09B3206432C04227BB
:1003A00009B349934FEF0000102710FB20F919B350
:1003B0001370C9F1297F91F2012700FB21F909B3DC
:1003C000237F89F2315058F1102710FB22F919B31D
:1003D000277E79F2012700FB23F92F7C81F209B3F4
:1003E000102710FB24F92F7971F200C019B30127EF
:1003F00000FB25F92F7359F200C009B3102710FB39
:1004000026F9223040F200C019B3012700FB27F97A
:10041000243028F64F77206819B30000F9CF10E494
:100420001ABF002717C03B503195C31BD04010E4C2
:100430001ABF0881033CE9F00B34D9F02091C100C8
:100440001981110F1213EDCF093641F10D3211F060
:10045000013E39F70093C8003F914F911F910F91D2
:100460002F91DF91CAB7C6FD51CFCF91CFBFCF91AA
:1004700018952091C800222379F31091C60011230A
:1004800011F5343012F13093C6002093C200109160
:10049000C3003BE0311B3093C30017C00091C6007E
:1004A00001308CF40AE53091600034FD10C00093F7
:1004B0006000C6EBD0E00FC02795A8F45150A9F416
:1004C000220F0000F9CF4AE503C042ED01C0432FDF
:1004D000C4E1D0E032E01AB31360D89A1ABB0BB370
:1004E00020E413E05F93012756E00BBB279520F42F
:1004F000515021F4220FF9CF012756E000003B5A5A
:100500000BBBD0F2279528F4515029F4220F00009C
:10051000F9CF012756E027950BBB20F4515021F469
:10052000220FF9CF012756E0299133230BBB21F687
:100530000C7F1091C700110FC651D0400BBB11F0BA
:100540001093C10010E41ABF01601AB31C7F402F42
:100550004C7F5F9100C000C00BBB1ABB4BBB7CCF74
:10056000CF93DF936091C600635067FDC1C0809157
:10057000C300CCE0D0E0C81BD109C653DF4F809147
:10058000C2008D3209F0A3C0683009F0AFC083EC1F
:100590008093B6008AE5809360001092660088819F
:1005A000807619F0CE01DDD37FC09A811092BF0012
:1005B0008981811106C01092C0002FEB30E082E0EB
:1005C0006FC0853019F49093C7005EC0863009F083
:1005D00055C08B81813019F48DE390E027C08230C3
:1005E00049F482E290E09093C5008093C40090E4C7
:1005F0008BE141C0833039F5911109C085E890E065
:100600009093C5008093C40090E484E034C091309E
:1006100049F481E690E09093C5008093C40090E493
:1006200084E229C0923049F48FE490E09093C500B1
:100630008093C40090E482E11EC09330D1F4CE01D7
:10064000E6D390E018C0813249F484E390E09093BF
:10065000C5008093C40090E489E00DC0823249F463
:1006600089E091E09093C5008093C40090E482E912
:1006700002C090E480E09093660016C0883069F074
:10068000893029F49093C9002FEB30E004C02FEBA0
:1006900030E08A3021F080E003C029EC30E081E0D6
:1006A0003093C5002093C4008F3F39F4988197FDA3
:1006B0008E8190E89093660007C09F81911104C0DD
:1006C0009E81981708F4892F809361000FC0809154
:1006D000660087FF0BC0CE0120D38F3F21F48EE14F
:1006E0008093600003C08111109261001092C600D7
:1006F0008091600084FF46C0809161008F3F09F4C3
:1007000041C0C82F893008F0C8E08C1B809361007D
:100710008091B60098E889278093B600CC2331F108
:100720002091C4003091C5008091660086FF0BC007
:10073000F901A7EBB0E08C2F8A0F94919D9331962D
:100740008A13FBCF09C0D901E7EBF0E08C2F8E0FA5
:100750009D9191938E13FCCF8C2F815090E0019648
:10076000820F931F9093C5008093C4006C2F87EB7A
:1007700090E0C5DDCC5FCC3019F08FEF8093610045
:10078000C093600084E199B3937031F48150D9F73C
:100790001092C7001092C100C1E08111C0E08091A9
:1007A00067008C1729F0C11101C030D3C0936700D6
:1007B000DF91CF91089585B7836085BF8BB7806443
:1007C0008BBF08958FB580628FBD0895823061F030
:1007D000833089F08130A9F480B7613011F48062F0
:1007E00001C08F7D80BF08958FB5613011F480689E
:1007F00007C08F7705C0613009F4E4CF8FB58F7DD6
:100800008FBD08958150833030F4E82FF0E0EE5929
:10081000FF4F208101C021E0662369F06130B1F40F
:100820003BB381E090E0022E01C0880F0A94EAF702
:10083000382B3BBB08953BB381E090E0022E01C012
:10084000880F0A94EAF7809583238BBB0895882349
:1008500019F0813031F403C01092690002C0809316
:1008600069006091690084E090E011C461E0811149
:1008700001C060E06093750085E090E008C460937B
:10088000710070937200809373009093740044E041
:1008900050E060E070E081E790E0F0C31092680003
:1008A00010926E0010926F0081E0809370008FEFC5
:1008B00080936A0080936B0080936C0080936D003E
:1008C00084E090E0D3D3809369008F3F11F481E0FE
:1008D000BEDF85E090E0CAD3809375008F3F11F4AE
:1008E00081E0C4DF44E050E060E070E081E790E048
:1008F000ADD38091710090917200A0917300B0917E
:1009000074008F3F9F4FAF4FBF4F19F4E4D0F2D028
:10091000B6DFD398D298D79AD69AD59A61E081E07B
:1009200071DF80916900811106C061E082E06ADFB9
:1009300061E083E067CF089580936E00089580930F
:100940006F00089580936800089580916E00089567
:1009500080916800089580916900089580917500E4
:100960000895E1E7F0E060817181828193810895CB
:1009700080916D000895873641F0823719F08236F4
:1009800051F406C080916A00089580916B0008952B
:1009900080916C00089580E00895CF93DF93C0911B
:1009A0006D0080916F00811102C0D0E002C0C0E0F4
:1009B000D0E080916900811134C060916A00CE015D
:1009C00070E032D3E92FE695F0E0E757FF4FE4916E
:1009D000E11106C060E081E015DF80B78F7D03C0C4
:1009E000ECBF80B7806280BF60916B00CE0170E089
:1009F0001BD3E92FE695F0E0E757FF4FE491F0E0D5
:100A0000FBBDEABD60916C00CE0170E00DD3E92F13
:100A1000E695F0E0E757FF4FE491F0E0F9BDE8BD5F
:100A200012C0C695EC2FF0E0E757FF4FE491E111BB
:100A300006C060E081E0E6DE80B78F7D03C0ECBFDA
:100A400080B7806280BFDF91CF91089580936D0061
:100A5000A4CF80936A0060936B0040936C009DCF9D
:100A6000823039F0833041F0813041F460936A0084
:100A700005C060936B0002C060936C008ECF80B79E
:100A8000836080BF8FB589608FBD8FEF90E095BD8B
:100A900084BD83B7846083BF80916900811103C0E6
:100AA0008EB584608EBD80B7806280BF8091690002
:100AB000811104C08FB580688FBD84DE6ECFCB9965
:100AC00002C0CA9B04C081E0809370000895109218
:100AD000700080E008951092E4001092E500F89410
:100AE00014BE81B5886181BD80E481BD81E08EBD89
:100AF000789408950F931F938091E5008823E1F384
:100B00001092E5000091E0001091E1002091E200D8
:100B10003091E300B801C9011F910F9108951F9210
:100B20000F920FB60F9211242F934F935F936F93F1
:100B30007F938F939F93AF93BF93EF93FF93809196
:100B4000E4009CB5E82FF0E0EA58FF4F90838F5FF8
:100B50008093E400803208F4D0C0E6E7F0E08091B2
:100B6000E0009091E100A091E200B091E3002191BA
:100B7000820F911DA11DB11D8093E0009093E100B3
:100B8000A093E200B093E3004091E0005091E100B7
:100B90006091E2007091E3008091E0009091E100AB
:100BA000A091E200B091E3002AE0880F991FAA1FEC
:100BB000BB1F2A95D1F7840F951FA61FB71F8093DF
:100BC000E0009093E100A093E200B093E300409135
:100BD000E0005091E1006091E2007091E3008091AB
:100BE000E0009091E100A091E200B091E30026E0E6
:100BF000B695A795979587952A95D1F78427952738
:100C0000A627B7278093E0009093E100A093E2002D
:100C1000B093E30080E0E639F80709F0A0CF4091F7
:100C2000E0005091E1006091E2007091E30080915A
:100C3000E0009091E100A091E200B091E30023E098
:100C4000880F991FAA1FBB1F2A95D1F7840F951FE4
:100C5000A61FB71F8093E0009093E100A093E200ED
:100C6000B093E3004091E0005091E1006091E20018
:100C70007091E3008091E0009091E100A091E2008A
:100C8000B091E300EBE0B695A79597958795EA9527
:100C9000D1F784279527A627B7278093E000909364
:100CA000E100A093E200B093E3004091E000509196
:100CB000E1006091E2007091E3008091E00090918A
:100CC000E100A091E200B091E300FFE0880F991FDE
:100CD000AA1FBB1FFA95D1F7840F951FA61FB71F38
:100CE0008093E0009093E100A093E200B093E300D2
:100CF0001092E40081E08093E500FF91EF91BF91B5
:100D0000AF919F918F917F916F915F914F912F91B3
:100D10000F900FBE0F901F901895209196002617E8
:100D200008F4622F261B2093960020919700FC0167
:100D3000322F381B05C09191B0E0A856BF4F9C934D
:100D40009E2FA32FAE0F981B9617A8F3620F6093E8
:100D5000970082E0F7DD81E090919600911180E0AC
:100D60000895FC0180EA90E09093C5008093C40050
:100D700080818076803209F047C08181813079F5A9
:100D800082818093A0008830D9F028F48630B1F0B9
:100D90008730D1F505C08930C9F08C30A9F512C073
:100DA00082E7E9DD8093A10087E6E5DD8093A2007C
:100DB00082E6E1DD8093A30084E00895D9DD03C0DD
:100DC000CADD01C0CBDD8093A10007C0C7DD882349
:100DD00011F075DEF8CF1092A10082E008958930FD
:100DE00099F48281813080F0863018F08A50823008
:100DF00058F4109297008681893008F401C088E089
:100E0000809396008FEF089580E008950895CF9223
:100E1000DF92EF92FF920F931F931092C5001092F2
:100E2000C400FC0123812330E1F582818330C9F5C0
:100E300084EA90E09093C5008093C40082E193E03F
:100E40009093A5008093A4008CDDE6EAF0E041E0F9
:100E500050E0A0E2B0E09A01220F331F220F331FAF
:100E60008D01021B130B6B017C0104C0F694E79407
:100E7000D794C7940A95D2F7970186010F70202F57
:100E800030E00A3018F4205D3F4F02C0295C3F4F2C
:100E9000219331934F5F5F4F49305105E1F682E175
:100EA00001C080E01F910F91FF90EF90DF90CF90F5
:100EB0000895F4DC53DD811101C0E1DD2EE088E10D
:100EC00090E00FB6F894A89581BD0FBE21BDD09AD1
:100ED0008AEFA895EFE6F7E13197F1F700C000003F
:100EE0008150B9F7D09867DC7894C0E0D0E000E09A
:100EF00010E0DD24D394A89533DB30DD882399F00E
:100F0000DEDDF82E8D1569F0882341F061E081E087
:100F100079DC60E081E05ADCDF2CEDCFB0DDD12C54
:100F200002C0D110E8CF14DD823009F046C081E064
:100F300009DD80919800843001F130F4823089F02D
:100F4000A0F48130C1F507C08A3019F18B30E9F087
:100F5000853089F516C060919A008091990080DDF6
:100F60002AC08091990072DD26C040919B0060915B
:100F70009A00809199006DDD1EC080919900DCDCA3
:100F80001AC08091990063DC16C0809199006EDCD4
:100F900012C02091990060919A00862F90E0A0E005
:100FA000B0E077276627922B20919C00622B20913E
:100FB0009B00722B64DC80E0C5DC08B600FE9BCF92
:100FC000C4DCE82FF0E0309749F40115110541F138
:100FD00080E0B5DCE2DC00E010E022C0E556FE4F28
:100FE000E491EE2EF12CF1E0EF1AF108012B29F437
:100FF00081E0A5DCD2DCC0E0D0E0CE15DF0521F435
:1010000080E09DDCCADC0AC0C7010196C817D90779
:1010100028F081E094DCC1DCC0E0D0E021968701BB
:1010200088B7816088BF67CF5527002480FF02C042
:10103000060E571F660F771F6115710521F09695F3
:101040008795009799F7952F802D0895DC01CB01A6
:10105000FC01E199FECF06C0FFBBEEBBE09A3196E2
:101060000DB20D9241505040B8F70895E199FECF6E
:101070009FBB8EBBE09A99278DB30895DC01CB010D
:1010800002C02D9105D041505040D8F70895262F29
:10109000E199FECF1CBA9FBB8EBB2DBB0FB6F89457
:0E10A000E29AE19A0FBE01960895F894FFCFF0
:0610AE005AFF07060500D1
:00000001FF
