:10000000C2C0F6C0DBC0DAC0EBC4D8C0D7C0D6C00F
:10001000D5C0D4C0D3C0D2C0D1C0D0C0CFC0CEC054
:10002000CDC009021B00010100803209040000005C
:1000300003000000092101010001227C00120110CF
:100040000100000008D0163108000101020301126E
:10005000034400650073006B004C0061006D00708C
:100060000024037700770077002E0064006D00788D
:100070000063006F006E00740072006F006C002E51
:100080000064006500040309040000000000000093
:10009000000101010101020202030303040405053A
:1000A0000607070808090A0B0B0C0D0E0F1011129A
:1000B0001314151618191A1B1D1E1F21222425277B
:1000C000282A2C2D2F31333537383A3C3E414345D1
:1000D00047494B4E505255575A5C5F616467696C93
:1000E0006F7275787A7D8084878A8D9093979A9DB8
:1000F000A1A4A8ABAFB3B6BABEC1C5C9CDD1D5D93D
:10010000DDE1E5E9EEF2F6FBFF0508094BA101157B
:100110000026FF007508A102093D850195029100A6
:10012000C0A102093D850295019100C0A1020947C5
:10013000850395039100C0A102093E8504950191B4
:1001400000C0A102094785059501B100C0A10209BF
:100150003D85069501B100C0A102094785079503B9
:10016000B100C0A102094785089501B100C0A102F4
:10017000094785099501B100C0A1020947850A9583
:10018000049100C0C00011241FBECFE5D2E0DEBF45
:10019000CDBF10E0A0E6B0E0E2E4FFE002C00590D1
:1001A0000D92A636B107D9F720E0A6E6B0E001C06F
:1001B0001D92A53EB207E1F7D1D5C1C621CFA82F28
:1001C000B92F80E090E041E050EA609530E009C04E
:1001D0002D9182279795879510F084279527305E7B
:1001E000C8F36F5FA8F30895EADF8D939D93089598
:1001F000CF93CFB7CF93C395C89BE9F7C89B09C0EE
:10020000C89B07C0C89B05C0C89B03C0C89B01C052
:10021000A1C0DF93C091C200DD27C753DF4FC89B49
:1002200002C0DF91EBCF2F930F931F9309B32FEFF2
:1002300000FB20F94F933F9319B34FEF012700FBC9
:1002400021F93BE031C04E7F012F19B3216028C056
:10025000102F4D7F2260000009B329C04B7F24601E
:10026000012F000019B32BC019B3477F28602AC0A3
:100270004F7E09B320612CC04F7D19B320622FC07F
:100280004F7B09B3206432C0422709B349934FEF33
:100290000000102710FB20F919B31370C9F1297F52
:1002A00091F2012700FB21F909B3237F89F2315034
:1002B00058F1102710FB22F919B3277E79F2012794
:1002C00000FB23F92F7C81F209B3102710FB24F9DE
:1002D0002F7971F200C019B3012700FB25F92F73A4
:1002E00059F200C009B3102710FB26F9223040F262
:1002F00000C019B3012700FB27F9243028F64F77F7
:10030000206819B30000F9CF10E41ABF002717C006
:100310003B503195C31BD04010E41ABF0881033C09
:10032000E9F00B34D9F02091C0001981110F12139C
:10033000EDCF093641F10D3211F0013E39F700934E
:10034000C7003F914F911F910F912F91DF91CAB735
:10035000C6FD51CFCF91CFBFCF9118952091C70047
:10036000222379F31091C500112311F5343012F1D5
:100370003093C5002093C1001091C2003BE0311BB7
:100380003093C20017C00091C50001308CF40AE51B
:100390003091600034FD10C000936000C5EBD0E0E8
:1003A0000FC02795A8F45150A9F4220F0000F9CFEF
:1003B0004AE503C042ED01C0432FC4E1D0E032E082
:1003C0001AB31360D89A1ABB0BB320E413E05F93FF
:1003D000012756E00BBB279520F4515021F4220F42
:1003E000F9CF012756E000003B5A0BBBD0F227950E
:1003F00028F4515029F4220F0000F9CF012756E0CC
:1004000027950BBB20F4515021F4220FF9CF01277F
:1004100056E0299133230BBB21F60C7F1091C600C7
:10042000110FC651D0400BBB11F01093C00010E467
:100430001ABF01601AB31C7F402F4C7F5F9100C030
:1004400000C00BBB1ABB4BBB7CCFCF93DF9360913B
:10045000C500635067FDC1C08091C200CCE0D0E010
:10046000C81BD109C753DF4F8091C1008D3209F0FD
:10047000A3C0683009F0AFC083EC8093B5008AE573
:1004800080936000109266008881807619F0CE011A
:10049000C9D37FC09A811092BE008981811106C0A4
:1004A0001092BF002EEB30E082E06FC0853019F46F
:1004B0009093C6005EC0863009F055C08B818130B4
:1004C00019F48DE390E027C0823049F482E290E095
:1004D0009093C4008093C30090E48BE141C08330CB
:1004E00039F5911109C085E890E09093C40080939C
:1004F000C30090E484E034C0913049F481E690E098
:100500009093C4008093C30090E484E229C09230A9
:1005100049F48FE490E09093C4008093C30090E48A
:1005200082E11EC09330D1F4CE01C6D390E018C052
:10053000813249F484E390E09093C4008093C30037
:1005400090E489E00DC0823249F489E091E0909313
:10055000C4008093C30090E48CE702C090E480E084
:100560009093660016C0883069F0893029F4909322
:10057000C8002EEB30E004C02EEB30E08A3021F0D2
:1005800080E003C028EC30E081E03093C400209389
:10059000C3008F3F39F4988197FD8E8190E8909346
:1005A000660007C09F81911104C09E81981708F4CE
:1005B000892F809361000FC08091660087FF0BC078
:1005C000CE010CD38F3F21F48EE18093600003C0F5
:1005D0008111109261001092C5008091600084FF2B
:1005E00046C0809161008F3F09F441C0C82F893017
:1005F00008F0C8E08C1B809361008091B50098E8FA
:1006000089278093B500CC2331F12091C30030912C
:10061000C4008091660086FF0BC0F901A6EBB0E034
:100620008C2F8A0F94919D9331968A13FBCF09C02A
:10063000D901E6EBF0E08C2F8E0F9D9191938E13F4
:10064000FCCF8C2F815090E00196820F931F9093E6
:10065000C4008093C3006C2F86EB90E0C5DDCC5FB7
:10066000CC3019F08FEF80936100C093600084E17B
:1006700099B3937031F48150D9F71092C60010925B
:10068000C000C1E08111C0E0809167008C1729F0A3
:10069000C11101C010D3C0936700DF91CF910895BD
:1006A00085B7836085BF8BB780648BBF08958FB596
:1006B00080628FBD0895823061F0833089F081308F
:1006C000A9F480B7613011F4806201C08F7D80BFD2
:1006D00008958FB5613011F4806807C08F7705C029
:1006E000613009F4E4CF8FB58F7D8FBD08958150BF
:1006F000833030F4E82FF0E0EE59FF4F208101C045
:1007000021E0662369F06130B1F43BB381E090E011
:10071000022E01C0880F0A94EAF7382B3BBB0895DC
:100720003BB381E090E0022E01C0880F0A94EAF703
:10073000809583238BBB0895882319F0813031F491
:1007400003C01092690002C0809369006091690043
:1007500084E090E0E6C36093710070937200809330
:1007600073009093740044E050E060E070E081E733
:1007700090E0CEC31092680010926E0010926F004D
:1007800081E0809370008FEF80936A0080936B000C
:1007900080936C0080936D0084E090E0B1D38093EF
:1007A00069008F3F11F481E0C7DF44E050E060E072
:1007B00070E081E790E094D3809171009091720095
:1007C000A0917300B09174008F3F9F4FAF4FBF4F08
:1007D00019F4E2D0F0D0BFDFD398D298D79AD69A46
:1007E000D59A61E081E083DF80916900811106C0C4
:1007F00061E082E07CDF61E083E079CF089580935F
:100800006E00089580936F000895809368000895A6
:1008100080916E000895809168000895809169002C
:100820000895E1E7F0E0608171818281938108950C
:1008300080916D000895873641F0823719F0823635
:1008400051F406C080916A00089580916B0008956C
:1008500080916C00089580E00895CF93DF9380919C
:100860006D0090916F00911103C0C82FD0E002C0BD
:10087000C0E0D0E090916900911134C060916A00AD
:10088000CE0170E01BD3E92FE695F0E0E757FF4F6C
:10089000E491E11106C060E081E029DF80B78F7D3F
:1008A00003C0ECBF80B7806280BF60916B00CE0157
:1008B00070E004D3E92FE695F0E0E757FF4FE491AD
:1008C000F0E0FBBDEABD60916C00CE0170E0F6D2B5
:1008D000E92FE695F0E0E757FF4FE491F0E0F9BD2E
:1008E000E8BD12C0811106C060E081E000DF80B782
:1008F0008F7D09C0C695EC2FF0E0E757FF4FE491DC
:10090000ECBF80B7806280BFDF91CF910895809364
:100910006D00A3CF80936A0060936B0040936C00DE
:100920009CCF823039F0833041F0813041F46093C4
:100930006A0005C060936B0002C060936C008DCFAD
:1009400080B7836080BF8FB589608FBD8FEF90E0E7
:1009500095BD84BD83B7846083BF80916900811198
:1009600003C08EB584608EBD80B7806280BF8091E9
:100970006900811104C08FB580688FBD98DE6DCF8E
:10098000CB9902C0CA9B04C081E080937000089597
:100990001092700080E008951092E3001092E4003D
:1009A000F89414BE81B5886181BD80E481BD81E089
:1009B0008EBD789408950F931F938091E40088234F
:1009C000E1F31092E4000091DF001091E00020912B
:1009D000E1003091E200B801C9011F910F91089523
:1009E0001F920F920FB60F9211242F934F935F9384
:1009F0006F937F938F939F93AF93BF93EF93FF93E7
:100A00008091E3009CB5E82FF0E0EB58FF4F908316
:100A10008F5F8093E300803208F4D0C0E5E7F0E018
:100A20008091DF009091E000A091E100B091E200A0
:100A30002191820F911DA11DB11D8093DF00909324
:100A4000E000A093E100B093E2004091DF005091FC
:100A5000E0006091E1007091E2008091DF009091F0
:100A6000E000A091E100B091E2002AE0880F991F18
:100A7000AA1FBB1F2A95D1F7840F951FA61FB71F6A
:100A80008093DF009093E000A093E100B093E20038
:100A90004091DF005091E0006091E1007091E20030
:100AA0008091DF009091E000A091E100B091E20020
:100AB00026E0B695A795979587952A95D1F784272F
:100AC0009527A627B7278093DF009093E000A09397
:100AD000E100B093E20080E0E539F80709F0A0CF2B
:100AE0004091DF005091E0006091E1007091E200E0
:100AF0008091DF009091E000A091E100B091E200D0
:100B000023E0880F991FAA1FBB1F2A95D1F7840FD6
:100B1000951FA61FB71F8093DF009093E000A0935E
:100B2000E100B093E2004091DF005091E00060915D
:100B3000E1007091E2008091DF009091E000A091CF
:100B4000E100B091E200EBE0B695A7959795879507
:100B5000EA95D1F784279527A627B7278093DF004A
:100B60009093E000A093E100B093E2004091DF0099
:100B70005091E0006091E1007091E2008091DF000F
:100B80009091E000A091E100B091E200FFE0880FB9
:100B9000991FAA1FBB1FFA95D1F7840F951FA61F97
:100BA000B71F8093DF009093E000A093E100B09323
:100BB000E2001092E30081E08093E400FF91EF9166
:100BC000BF91AF919F918F917F916F915F914F9165
:100BD0002F910F900FBE0F901F90189520919500A8
:100BE000261708F4622F261B20939500209196006B
:100BF000FC01322F381B05C09191B0E0A956BF4FC0
:100C00009C939E2FA32FAE0F981B9617A8F3620FED
:100C10006093960082E0F9DD81E09091950091115A
:100C200080E00895FC018FE990E09093C4008093E8
:100C3000C300808180768032E1F58181813029F5A1
:100C4000828180939F00873049F018F4863089F5BF
:100C500013C0883099F0893061F512C082E7EBDD6E
:100C60008093A00087E6E7DD8093A10082E6E3DDC4
:100C70008093A20084E00895DBDD03C0CFDD01C0D6
:100C80007FDE8093A00082E00895893091F4828114
:100C9000813078F0863010F08A3059F41092960046
:100CA0008681893008F401C088E0809395008FEF39
:100CB000089580E008950895CF92DF92EF92FF9219
:100CC0000F931F931092C4001092C300FC01238164
:100CD0002330E1F582818330C9F583EA90E0909377
:100CE000C4008093C30082E193E09093A4008093BA
:100CF000A30097DDE5EAF0E041E050E0A0E2B0E0DB
:100D00009A01220F331F220F331F8D01021B130B79
:100D10006B017C0104C0F694E794D794C7940A95BC
:100D2000D2F7970186010F70202F30E00A3018F4B7
:100D3000205D3F4F02C0295C3F4F219331934F5FAD
:100D40005F4F49305105E1F682E101C080E01F911B
:100D50000F91FF90EF90DF90CF9008950BDD2EE084
:100D600088E190E00FB6F894A89581BD0FBE21BD33
:100D7000D09A8AEFA895EFE6F7E13197F1F700C036
:100D800000008150B9F7D0988BDC7894C0E0D0E0B7
:100D900000E010E0BB24B394A89557DBF1DDF82EFA
:100DA0008B1569F0882341F061E081E0A0DC60E010
:100DB00081E081DCBF2CF0CFC3DDB12C02C0B110CB
:100DC000EBCF29DD823009F040C081E01EDD80914B
:100DD00097008330B1F028F4813049F0823099F5E2
:100DE0000CC08530D1F0A8F08A3069F51AC0609146
:100DF00099008091980095DD26C08091980087DD4C
:100E000022C040919A00609199008091980082DD03
:100E10001AC080919800F3DC16C0809198008CDC99
:100E200012C02091980060919900862F90E0A0E078
:100E3000B0E077276627922B20919B00622B2091B0
:100E40009A00722B88DC80E0E0DC08B600FEA4CFBC
:100E5000DFDC90E0009749F40115110559F180E0BD
:100E6000D1DCFBDC00E010E025C06EEC7FEF26D08B
:100E70006C017C01F2E6EF1AF6ECFF0A012B29F473
:100E800081E0C0DCEADCC0E0D0E0CE15DF0521F473
:100E900080E0B8DCE2DC0CC082E9C81A8EEBD80A2C
:100EA000CC15DD0528F081E0ADDCD7DCC0E0D0E07A
:100EB0002196870188B78E7F88BF6ECF5527002483
:100EC00080FF02C0060E571F660F771F6115710560
:100ED00021F096958795009799F7952F802D089585
:100EE000DC01CB01FC01E199FECF06C0FFBBEEBBEC
:100EF000E09A31960DB20D9241505040B8F70895E6
:100F0000E199FECF9FBB8EBBE09A99278DB30895E0
:100F1000DC01CB0102C02D9105D041505040D8F7E3
:100F20000895262FE199FECF1CBA9FBB8EBB2DBB27
:100F30000FB6F894E29AE19A0FBE01960895F894DC
:020F4000FFCFE1
:060F42005AFF070605003E
:00000001FF
